{
  "_format": "hh-sol-artifact-1",
  "contractName": "ERC20Mint",
  "sourceName": "contracts/ERC20Mint.sol",
  "abi": [
    {
      "inputs": [],
      "stateMutability": "nonpayable",
      "type": "constructor"
    },
    {
      "anonymous": false,
      "inputs": [
        {
          "indexed": true,
          "internalType": "address",
          "name": "from",
          "type": "address"
        },
        {
          "indexed": true,
          "internalType": "address",
          "name": "to",
          "type": "address"
        },
        {
          "indexed": false,
          "internalType": "uint256",
          "name": "value",
          "type": "uint256"
        }
      ],
      "name": "Transfer",
      "type": "event"
    },
    {
      "inputs": [
        {
          "internalType": "address",
          "name": "",
          "type": "address"
        }
      ],
      "name": "balanceOf",
      "outputs": [
        {
          "internalType": "uint256",
          "name": "",
          "type": "uint256"
        }
      ],
      "stateMutability": "view",
      "type": "function"
    },
    {
      "inputs": [],
      "name": "decimals",
      "outputs": [
        {
          "internalType": "uint8",
          "name": "",
          "type": "uint8"
        }
      ],
      "stateMutability": "view",
      "type": "function"
    },
    {
      "inputs": [
        {
          "internalType": "address",
          "name": "to",
          "type": "address"
        },
        {
          "internalType": "uint256",
          "name": "value",
          "type": "uint256"
        }
      ],
      "name": "mint",
      "outputs": [],
      "stateMutability": "nonpayable",
      "type": "function"
    },
    {
      "inputs": [],
      "name": "name",
      "outputs": [
        {
          "internalType": "string",
          "name": "",
          "type": "string"
        }
      ],
      "stateMutability": "view",
      "type": "function"
    },
    {
      "inputs": [],
      "name": "symbol",
      "outputs": [
        {
          "internalType": "string",
          "name": "",
          "type": "string"
        }
      ],
      "stateMutability": "view",
      "type": "function"
    },
    {
      "inputs": [],
      "name": "totalSupply",
      "outputs": [
        {
          "internalType": "uint256",
          "name": "",
          "type": "uint256"
        }
      ],
      "stateMutability": "view",
      "type": "function"
    },
    {
      "inputs": [
        {
          "internalType": "address",
          "name": "to",
          "type": "address"
        },
        {
          "internalType": "uint256",
          "name": "value",
          "type": "uint256"
        }
      ],
      "name": "transfer",
      "outputs": [],
      "stateMutability": "nonpayable",
      "type": "function"
    }
  ],
  "bytecode": "0x60806040523480156200001157600080fd5b506040518060400160405280601681526020017f53796e746865746963204173736574204d61726b6574000000000000000000008152506001908162000058919062000344565b506040518060400160405280600381526020017f53524b0000000000000000000000000000000000000000000000000000000000815250600290816200009f919062000344565b506012600360006101000a81548160ff021916908360ff16021790555060006004819055506200042b565b600081519050919050565b7f4e487b7100000000000000000000000000000000000000000000000000000000600052604160045260246000fd5b7f4e487b7100000000000000000000000000000000000000000000000000000000600052602260045260246000fd5b600060028204905060018216806200014c57607f821691505b60208210810362000162576200016162000104565b5b50919050565b60008190508160005260206000209050919050565b60006020601f8301049050919050565b600082821b905092915050565b600060088302620001cc7fffffffffffffffffffffffffffffffffffffffffffffffffffffffffffffffff826200018d565b620001d886836200018d565b95508019841693508086168417925050509392505050565b6000819050919050565b6000819050919050565b6000620002256200021f6200021984620001f0565b620001fa565b620001f0565b9050919050565b6000819050919050565b620002418362000204565b6200025962000250826200022c565b8484546200019a565b825550505050565b600090565b6200027062000261565b6200027d81848462000236565b505050565b5b81811015620002a5576200029960008262000266565b60018101905062000283565b5050565b601f821115620002f457620002be8162000168565b620002c9846200017d565b81016020851015620002d9578190505b620002f1620002e8856200017d565b83018262000282565b50505b505050565b600082821c905092915050565b60006200031960001984600802620002f9565b1980831691505092915050565b600062000334838362000306565b9150826002028217905092915050565b6200034f82620000ca565b67ffffffffffffffff8111156200036b576200036a620000d5565b5b62000377825462000133565b62000384828285620002a9565b600060209050601f831160018114620003bc5760008415620003a7578287015190505b620003b3858262000326565b86555062000423565b601f198416620003cc8662000168565b60005b82811015620003f657848901518255600182019150602085019450602081019050620003cf565b8683101562000416578489015162000412601f89168262000306565b8355505b6001600288020188555050505b505050505050565b610a88806200043b6000396000f3fe608060405234801561001057600080fd5b506004361061007d5760003560e01c806340c10f191161005b57806340c10f19146100dc57806370a08231146100f857806395d89b4114610128578063a9059cbb146101465761007d565b806306fdde031461008257806318160ddd146100a0578063313ce567146100be575b600080fd5b61008a610162565b6040516100979190610668565b60405180910390f35b6100a86101f0565b6040516100b591906106a3565b60405180910390f35b6100c66101f6565b6040516100d391906106da565b60405180910390f35b6100f660048036038101906100f19190610784565b610209565b005b610112600480360381019061010d91906107c4565b610392565b60405161011f91906106a3565b60405180910390f35b6101306103aa565b60405161013d9190610668565b60405180910390f35b610160600480360381019061015b9190610784565b610438565b005b6001805461016f90610820565b80601f016020809104026020016040519081016040528092919081815260200182805461019b90610820565b80156101e85780601f106101bd576101008083540402835291602001916101e8565b820191906000526020600020905b8154815290600101906020018083116101cb57829003601f168201915b505050505081565b60045481565b600360009054906101000a900460ff1681565b3373ffffffffffffffffffffffffffffffffffffffff163373ffffffffffffffffffffffffffffffffffffffff1614610277576040517f08c379a000000000000000000000000000000000000000000000000000000000815260040161026e9061089d565b60405180910390fd5b600081116102ba576040517f08c379a00000000000000000000000000000000000000000000000000000000081526004016102b190610909565b60405180910390fd5b806000808473ffffffffffffffffffffffffffffffffffffffff1673ffffffffffffffffffffffffffffffffffffffff16815260200190815260200160002060008282546103089190610958565b9250508190555080600460008282546103219190610958565b925050819055508173ffffffffffffffffffffffffffffffffffffffff16600073ffffffffffffffffffffffffffffffffffffffff167fddf252ad1be2c89b69c2b068fc378daa952ba7f163c4a11628f55a4df523b3ef8360405161038691906106a3565b60405180910390a35050565b60006020528060005260406000206000915090505481565b600280546103b790610820565b80601f01602080910402602001604051908101604052809291908181526020018280546103e390610820565b80156104305780601f1061040557610100808354040283529160200191610430565b820191906000526020600020905b81548152906001019060200180831161041357829003601f168201915b505050505081565b806000803373ffffffffffffffffffffffffffffffffffffffff1673ffffffffffffffffffffffffffffffffffffffff16815260200190815260200160002054101580156104865750600081115b6104c5576040517f08c379a00000000000000000000000000000000000000000000000000000000081526004016104bc906109fe565b60405180910390fd5b806000803373ffffffffffffffffffffffffffffffffffffffff1673ffffffffffffffffffffffffffffffffffffffff16815260200190815260200160002060008282546105139190610a1e565b92505081905550806000808473ffffffffffffffffffffffffffffffffffffffff1673ffffffffffffffffffffffffffffffffffffffff16815260200190815260200160002060008282546105689190610958565b925050819055508173ffffffffffffffffffffffffffffffffffffffff163373ffffffffffffffffffffffffffffffffffffffff167fddf252ad1be2c89b69c2b068fc378daa952ba7f163c4a11628f55a4df523b3ef836040516105cc91906106a3565b60405180910390a35050565b600081519050919050565b600082825260208201905092915050565b60005b838110156106125780820151818401526020810190506105f7565b60008484015250505050565b6000601f19601f8301169050919050565b600061063a826105d8565b61064481856105e3565b93506106548185602086016105f4565b61065d8161061e565b840191505092915050565b60006020820190508181036000830152610682818461062f565b905092915050565b6000819050919050565b61069d8161068a565b82525050565b60006020820190506106b86000830184610694565b92915050565b600060ff82169050919050565b6106d4816106be565b82525050565b60006020820190506106ef60008301846106cb565b92915050565b600080fd5b600073ffffffffffffffffffffffffffffffffffffffff82169050919050565b6000610725826106fa565b9050919050565b6107358161071a565b811461074057600080fd5b50565b6000813590506107528161072c565b92915050565b6107618161068a565b811461076c57600080fd5b50565b60008135905061077e81610758565b92915050565b6000806040838503121561079b5761079a6106f5565b5b60006107a985828601610743565b92505060206107ba8582860161076f565b9150509250929050565b6000602082840312156107da576107d96106f5565b5b60006107e884828501610743565b91505092915050565b7f4e487b7100000000000000000000000000000000000000000000000000000000600052602260045260246000fd5b6000600282049050600182168061083857607f821691505b60208210810361084b5761084a6107f1565b5b50919050565b7f4d696e74696e67207065726d697373696f6e73206e6f74206772616e74656400600082015250565b6000610887601f836105e3565b915061089282610851565b602082019050919050565b600060208201905081810360008301526108b68161087a565b9050919050565b7f43616e6e6f74206d696e74203020746f6b656e73000000000000000000000000600082015250565b60006108f36014836105e3565b91506108fe826108bd565b602082019050919050565b60006020820190508181036000830152610922816108e6565b9050919050565b7f4e487b7100000000000000000000000000000000000000000000000000000000600052601160045260246000fd5b60006109638261068a565b915061096e8361068a565b925082820190508082111561098657610985610929565b5b92915050565b7f496e73756666696369656e742062616c616e6365206f7220696e76616c69642060008201527f7472616e7366657220616d6f756e740000000000000000000000000000000000602082015250565b60006109e8602f836105e3565b91506109f38261098c565b604082019050919050565b60006020820190508181036000830152610a17816109db565b9050919050565b6000610a298261068a565b9150610a348361068a565b9250828203905081811115610a4c57610a4b610929565b5b9291505056fea26469706673582212209e92ec58818328c181c94099d42a3b79be88f34e9ce1ea5f14a374e3af52daf164736f6c63430008110033",
  "linkReferences": {},
  "deployedLinkReferences": {}
}