{
  "_format": "hh-sol-artifact-1",
  "contractName": "SyntheticAssetMarket",
  "sourceName": "contracts/SyntheticAssetMarket.sol",
  "abi": [
    {
      "anonymous": false,
      "inputs": [
        {
          "indexed": true,
          "internalType": "address",
          "name": "owner",
          "type": "address"
        },
        {
          "indexed": true,
          "internalType": "address",
          "name": "synthAsset",
          "type": "address"
        }
      ],
      "name": "SyntheticAssetCreated",
      "type": "event"
    },
    {
      "anonymous": false,
      "inputs": [
        {
          "indexed": true,
          "internalType": "address",
          "name": "from",
          "type": "address"
        },
        {
          "indexed": true,
          "internalType": "address",
          "name": "to",
          "type": "address"
        },
        {
          "indexed": true,
          "internalType": "address",
          "name": "syntheticAsset",
          "type": "address"
        }
      ],
      "name": "SyntheticAssetTraded",
      "type": "event"
    },
    {
      "anonymous": false,
      "inputs": [
        {
          "indexed": true,
          "internalType": "address",
          "name": "from",
          "type": "address"
        },
        {
          "indexed": true,
          "internalType": "address",
          "name": "to",
          "type": "address"
        },
        {
          "indexed": false,
          "internalType": "uint256",
          "name": "value",
          "type": "uint256"
        }
      ],
      "name": "Transfer",
      "type": "event"
    },
    {
      "inputs": [
        {
          "internalType": "address",
          "name": "asset",
          "type": "address"
        },
        {
          "internalType": "uint256",
          "name": "assetWeight",
          "type": "uint256"
        }
      ],
      "name": "addAsset",
      "outputs": [],
      "stateMutability": "nonpayable",
      "type": "function"
    },
    {
      "inputs": [
        {
          "internalType": "address",
          "name": "",
          "type": "address"
        }
      ],
      "name": "assets",
      "outputs": [
        {
          "internalType": "bool",
          "name": "",
          "type": "bool"
        }
      ],
      "stateMutability": "view",
      "type": "function"
    },
    {
      "inputs": [
        {
          "internalType": "address",
          "name": "",
          "type": "address"
        }
      ],
      "name": "balanceOf",
      "outputs": [
        {
          "internalType": "uint256",
          "name": "",
          "type": "uint256"
        }
      ],
      "stateMutability": "view",
      "type": "function"
    },
    {
      "inputs": [
        {
          "internalType": "address[]",
          "name": "underlyingAssets",
          "type": "address[]"
        },
        {
          "internalType": "uint256[]",
          "name": "weights",
          "type": "uint256[]"
        }
      ],
      "name": "createSyntheticAsset",
      "outputs": [],
      "stateMutability": "nonpayable",
      "type": "function"
    },
    {
      "inputs": [],
      "name": "decimals",
      "outputs": [
        {
          "internalType": "uint8",
          "name": "",
          "type": "uint8"
        }
      ],
      "stateMutability": "view",
      "type": "function"
    },
    {
      "inputs": [
        {
          "internalType": "address",
          "name": "syntheticAsset",
          "type": "address"
        }
      ],
      "name": "getSyntheticAsset",
      "outputs": [
        {
          "internalType": "address[]",
          "name": "",
          "type": "address[]"
        },
        {
          "internalType": "uint256[]",
          "name": "",
          "type": "uint256[]"
        },
        {
          "internalType": "uint256",
          "name": "",
          "type": "uint256"
        }
      ],
      "stateMutability": "view",
      "type": "function"
    },
    {
      "inputs": [
        {
          "internalType": "address",
          "name": "to",
          "type": "address"
        },
        {
          "internalType": "uint256",
          "name": "value",
          "type": "uint256"
        }
      ],
      "name": "mint",
      "outputs": [],
      "stateMutability": "nonpayable",
      "type": "function"
    },
    {
      "inputs": [],
      "name": "name",
      "outputs": [
        {
          "internalType": "string",
          "name": "",
          "type": "string"
        }
      ],
      "stateMutability": "view",
      "type": "function"
    },
    {
      "inputs": [
        {
          "internalType": "address",
          "name": "asset",
          "type": "address"
        }
      ],
      "name": "removeAsset",
      "outputs": [],
      "stateMutability": "nonpayable",
      "type": "function"
    },
    {
      "inputs": [],
      "name": "symbol",
      "outputs": [
        {
          "internalType": "string",
          "name": "",
          "type": "string"
        }
      ],
      "stateMutability": "view",
      "type": "function"
    },
    {
      "inputs": [
        {
          "internalType": "address",
          "name": "",
          "type": "address"
        }
      ],
      "name": "synthAssets",
      "outputs": [
        {
          "internalType": "address payable",
          "name": "owner",
          "type": "address"
        },
        {
          "internalType": "uint256",
          "name": "totalWeight",
          "type": "uint256"
        }
      ],
      "stateMutability": "view",
      "type": "function"
    },
    {
      "inputs": [],
      "name": "totalSupply",
      "outputs": [
        {
          "internalType": "uint256",
          "name": "",
          "type": "uint256"
        }
      ],
      "stateMutability": "view",
      "type": "function"
    },
    {
      "inputs": [
        {
          "internalType": "address",
          "name": "syntheticAsset",
          "type": "address"
        },
        {
          "internalType": "address",
          "name": "newOwner",
          "type": "address"
        }
      ],
      "name": "tradeSyntheticAsset",
      "outputs": [],
      "stateMutability": "nonpayable",
      "type": "function"
    },
    {
      "inputs": [
        {
          "internalType": "address",
          "name": "to",
          "type": "address"
        },
        {
          "internalType": "uint256",
          "name": "value",
          "type": "uint256"
        }
      ],
      "name": "transfer",
      "outputs": [],
      "stateMutability": "nonpayable",
      "type": "function"
    },
    {
      "inputs": [
        {
          "internalType": "address",
          "name": "",
          "type": "address"
        }
      ],
      "name": "weight",
      "outputs": [
        {
          "internalType": "uint256",
          "name": "",
          "type": "uint256"
        }
      ],
      "stateMutability": "view",
      "type": "function"
    }
  ],
  "bytecode": "0x60806040523480156200001157600080fd5b506040518060400160405280601681526020017f53796e746865746963204173736574204d61726b6574000000000000000000008152506001908162000058919062000344565b506040518060400160405280600381526020017f53524b0000000000000000000000000000000000000000000000000000000000815250600290816200009f919062000344565b506012600360006101000a81548160ff021916908360ff16021790555060006004819055506200042b565b600081519050919050565b7f4e487b7100000000000000000000000000000000000000000000000000000000600052604160045260246000fd5b7f4e487b7100000000000000000000000000000000000000000000000000000000600052602260045260246000fd5b600060028204905060018216806200014c57607f821691505b60208210810362000162576200016162000104565b5b50919050565b60008190508160005260206000209050919050565b60006020601f8301049050919050565b600082821b905092915050565b600060088302620001cc7fffffffffffffffffffffffffffffffffffffffffffffffffffffffffffffffff826200018d565b620001d886836200018d565b95508019841693508086168417925050509392505050565b6000819050919050565b6000819050919050565b6000620002256200021f6200021984620001f0565b620001fa565b620001f0565b9050919050565b6000819050919050565b620002418362000204565b6200025962000250826200022c565b8484546200019a565b825550505050565b600090565b6200027062000261565b6200027d81848462000236565b505050565b5b81811015620002a5576200029960008262000266565b60018101905062000283565b5050565b601f821115620002f457620002be8162000168565b620002c9846200017d565b81016020851015620002d9578190505b620002f1620002e8856200017d565b83018262000282565b50505b505050565b600082821c905092915050565b60006200031960001984600802620002f9565b1980831691505092915050565b600062000334838362000306565b9150826002028217905092915050565b6200034f82620000ca565b67ffffffffffffffff8111156200036b576200036a620000d5565b5b62000377825462000133565b62000384828285620002a9565b600060209050601f831160018114620003bc5760008415620003a7578287015190505b620003b3858262000326565b86555062000423565b601f198416620003cc8662000168565b60005b82811015620003f657848901518255600182019150602085019450602081019050620003cf565b8683101562000416578489015162000412601f89168262000306565b8355505b6001600288020188555050505b505050505050565b6122d0806200043b6000396000f3fe608060405234801561001057600080fd5b50600436106100f55760003560e01c806370a0823111610097578063a9059cbb11610066578063a9059cbb14610260578063e11f25421461027c578063f11b8188146102ad578063f4396e2a146102dd576100f5565b806370a08231146101da5780638f33201c1461020a5780639250650e1461022657806395d89b4114610242576100f5565b806340c10f19116100d357806340c10f19146101545780634a5e42b1146101705780636459eb401461018c57806366a6a4bd146101be576100f5565b806306fdde03146100fa57806318160ddd14610118578063313ce56714610136575b600080fd5b61010261030d565b60405161010f919061150e565b60405180910390f35b61012061039b565b60405161012d9190611549565b60405180910390f35b61013e6103a1565b60405161014b9190611580565b60405180910390f35b61016e60048036038101906101699190611639565b6103b4565b005b61018a60048036038101906101859190611679565b61053d565b005b6101a660048036038101906101a19190611679565b6106ba565b6040516101b593929190611822565b60405180910390f35b6101d860048036038101906101d39190611639565b6109bc565b005b6101f460048036038101906101ef9190611679565b610b7c565b6040516102019190611549565b60405180910390f35b610224600480360381019061021f9190611867565b610b94565b005b610240600480360381019061023b9190611ab2565b610dc9565b005b61024a6111d4565b604051610257919061150e565b60405180910390f35b61027a60048036038101906102759190611639565b611262565b005b61029660048036038101906102919190611679565b611402565b6040516102a4929190611b4b565b60405180910390f35b6102c760048036038101906102c29190611679565b611446565b6040516102d49190611b8f565b60405180910390f35b6102f760048036038101906102f29190611679565b611466565b6040516103049190611549565b60405180910390f35b6001805461031a90611bd9565b80601f016020809104026020016040519081016040528092919081815260200182805461034690611bd9565b80156103935780601f1061036857610100808354040283529160200191610393565b820191906000526020600020905b81548152906001019060200180831161037657829003601f168201915b505050505081565b60045481565b600360009054906101000a900460ff1681565b3373ffffffffffffffffffffffffffffffffffffffff163373ffffffffffffffffffffffffffffffffffffffff1614610422576040517f08c379a000000000000000000000000000000000000000000000000000000000815260040161041990611c56565b60405180910390fd5b60008111610465576040517f08c379a000000000000000000000000000000000000000000000000000000000815260040161045c90611cc2565b60405180910390fd5b806000808473ffffffffffffffffffffffffffffffffffffffff1673ffffffffffffffffffffffffffffffffffffffff16815260200190815260200160002060008282546104b39190611d11565b9250508190555080600460008282546104cc9190611d11565b925050819055508173ffffffffffffffffffffffffffffffffffffffff16600073ffffffffffffffffffffffffffffffffffffffff167fddf252ad1be2c89b69c2b068fc378daa952ba7f163c4a11628f55a4df523b3ef836040516105319190611549565b60405180910390a35050565b3373ffffffffffffffffffffffffffffffffffffffff163373ffffffffffffffffffffffffffffffffffffffff16146105ab576040517f08c379a00000000000000000000000000000000000000000000000000000000081526004016105a290611d91565b60405180910390fd5b600073ffffffffffffffffffffffffffffffffffffffff168173ffffffffffffffffffffffffffffffffffffffff160361061a576040517f08c379a000000000000000000000000000000000000000000000000000000000815260040161061190611dfd565b60405180910390fd5b6000600660008373ffffffffffffffffffffffffffffffffffffffff1673ffffffffffffffffffffffffffffffffffffffff16815260200190815260200160002060006101000a81548160ff0219169083151502179055506000600760008373ffffffffffffffffffffffffffffffffffffffff1673ffffffffffffffffffffffffffffffffffffffff1681526020019081526020016000208190555050565b606080600080600560008673ffffffffffffffffffffffffffffffffffffffff1673ffffffffffffffffffffffffffffffffffffffff1681526020019081526020016000206040518060600160405290816000820160009054906101000a900473ffffffffffffffffffffffffffffffffffffffff1673ffffffffffffffffffffffffffffffffffffffff1673ffffffffffffffffffffffffffffffffffffffff16815260200160018201805480602002602001604051908101604052809291908181526020016000905b8282101561081757838290600052602060002090600202016040518060400160405290816000820160009054906101000a900473ffffffffffffffffffffffffffffffffffffffff1673ffffffffffffffffffffffffffffffffffffffff1673ffffffffffffffffffffffffffffffffffffffff16815260200160018201548152505081526020019060010190610785565b5050505081526020016002820154815250509050600081602001515167ffffffffffffffff81111561084c5761084b6118ac565b5b60405190808252806020026020018201604052801561087a5781602001602082028036833780820191505090505b509050600082602001515167ffffffffffffffff81111561089e5761089d6118ac565b5b6040519080825280602002602001820160405280156108cc5781602001602082028036833780820191505090505b50905060005b8360200151518110156109a457836020015181815181106108f6576108f5611e1d565b5b60200260200101516000015183828151811061091557610914611e1d565b5b602002602001019073ffffffffffffffffffffffffffffffffffffffff16908173ffffffffffffffffffffffffffffffffffffffff16815250508360200151818151811061096657610965611e1d565b5b60200260200101516020015182828151811061098557610984611e1d565b5b602002602001018181525050808061099c90611e4c565b9150506108d2565b50818184604001519550955095505050509193909250565b3373ffffffffffffffffffffffffffffffffffffffff163373ffffffffffffffffffffffffffffffffffffffff1614610a2a576040517f08c379a0000000000000000000000000000000000000000000000000000000008152600401610a2190611ee0565b60405180910390fd5b600073ffffffffffffffffffffffffffffffffffffffff168273ffffffffffffffffffffffffffffffffffffffff1603610a99576040517f08c379a0000000000000000000000000000000000000000000000000000000008152600401610a9090611dfd565b60405180910390fd5b60008111610adc576040517f08c379a0000000000000000000000000000000000000000000000000000000008152600401610ad390611f4c565b60405180910390fd5b6001600660008473ffffffffffffffffffffffffffffffffffffffff1673ffffffffffffffffffffffffffffffffffffffff16815260200190815260200160002060006101000a81548160ff02191690831515021790555080600760008473ffffffffffffffffffffffffffffffffffffffff1673ffffffffffffffffffffffffffffffffffffffff168152602001908152602001600020819055505050565b60006020528060005260406000206000915090505481565b3373ffffffffffffffffffffffffffffffffffffffff16600560008473ffffffffffffffffffffffffffffffffffffffff1673ffffffffffffffffffffffffffffffffffffffff16815260200190815260200160002060000160009054906101000a900473ffffffffffffffffffffffffffffffffffffffff1673ffffffffffffffffffffffffffffffffffffffff1614610c64576040517f08c379a0000000000000000000000000000000000000000000000000000000008152600401610c5b90611fde565b60405180910390fd5b600073ffffffffffffffffffffffffffffffffffffffff168173ffffffffffffffffffffffffffffffffffffffff1603610cd3576040517f08c379a0000000000000000000000000000000000000000000000000000000008152600401610cca9061204a565b60405180910390fd5b80600560008473ffffffffffffffffffffffffffffffffffffffff1673ffffffffffffffffffffffffffffffffffffffff16815260200190815260200160002060000160006101000a81548173ffffffffffffffffffffffffffffffffffffffff021916908373ffffffffffffffffffffffffffffffffffffffff1602179055508173ffffffffffffffffffffffffffffffffffffffff168173ffffffffffffffffffffffffffffffffffffffff163373ffffffffffffffffffffffffffffffffffffffff167f5fb525bfe116fe9eff38ab60f8c2cacad2296a1d17c5d071810da556686d9fb060405160405180910390a45050565b6000825111610e0d576040517f08c379a0000000000000000000000000000000000000000000000000000000008152600401610e04906120dc565b60405180910390fd5b8051825114610e51576040517f08c379a0000000000000000000000000000000000000000000000000000000008152600401610e4890612148565b60405180910390fd5b600030905033600560008373ffffffffffffffffffffffffffffffffffffffff1673ffffffffffffffffffffffffffffffffffffffff16815260200190815260200160002060000160006101000a81548173ffffffffffffffffffffffffffffffffffffffff021916908373ffffffffffffffffffffffffffffffffffffffff1602179055506000600560008373ffffffffffffffffffffffffffffffffffffffff1673ffffffffffffffffffffffffffffffffffffffff1681526020019081526020016000206002018190555060005b83518110156111745760066000858381518110610f4257610f41611e1d565b5b602002602001015173ffffffffffffffffffffffffffffffffffffffff1673ffffffffffffffffffffffffffffffffffffffff16815260200190815260200160002060009054906101000a900460ff16610fd1576040517f08c379a0000000000000000000000000000000000000000000000000000000008152600401610fc8906121b4565b60405180910390fd5b600560008373ffffffffffffffffffffffffffffffffffffffff1673ffffffffffffffffffffffffffffffffffffffff168152602001908152602001600020600101604051806040016040528086848151811061103157611030611e1d565b5b602002602001015173ffffffffffffffffffffffffffffffffffffffff16815260200185848151811061106757611066611e1d565b5b6020026020010151815250908060018154018082558091505060019003906000526020600020906002020160009091909190915060008201518160000160006101000a81548173ffffffffffffffffffffffffffffffffffffffff021916908373ffffffffffffffffffffffffffffffffffffffff16021790555060208201518160010155505082818151811061110157611100611e1d565b5b6020026020010151600560008473ffffffffffffffffffffffffffffffffffffffff1673ffffffffffffffffffffffffffffffffffffffff168152602001908152602001600020600201600082825461115a9190611d11565b92505081905550808061116c90611e4c565b915050610f22565b508073ffffffffffffffffffffffffffffffffffffffff163373ffffffffffffffffffffffffffffffffffffffff167fafd2d6db757fed457dbebd58848b270fccf99d36708f28c91b68f4bbef5e8ac960405160405180910390a3505050565b600280546111e190611bd9565b80601f016020809104026020016040519081016040528092919081815260200182805461120d90611bd9565b801561125a5780601f1061122f5761010080835404028352916020019161125a565b820191906000526020600020905b81548152906001019060200180831161123d57829003601f168201915b505050505081565b806000803373ffffffffffffffffffffffffffffffffffffffff1673ffffffffffffffffffffffffffffffffffffffff16815260200190815260200160002054101580156112b05750600081115b6112ef576040517f08c379a00000000000000000000000000000000000000000000000000000000081526004016112e690612246565b60405180910390fd5b806000803373ffffffffffffffffffffffffffffffffffffffff1673ffffffffffffffffffffffffffffffffffffffff168152602001908152602001600020600082825461133d9190612266565b92505081905550806000808473ffffffffffffffffffffffffffffffffffffffff1673ffffffffffffffffffffffffffffffffffffffff16815260200190815260200160002060008282546113929190611d11565b925050819055508173ffffffffffffffffffffffffffffffffffffffff163373ffffffffffffffffffffffffffffffffffffffff167fddf252ad1be2c89b69c2b068fc378daa952ba7f163c4a11628f55a4df523b3ef836040516113f69190611549565b60405180910390a35050565b60056020528060005260406000206000915090508060000160009054906101000a900473ffffffffffffffffffffffffffffffffffffffff16908060020154905082565b60066020528060005260406000206000915054906101000a900460ff1681565b60076020528060005260406000206000915090505481565b600081519050919050565b600082825260208201905092915050565b60005b838110156114b857808201518184015260208101905061149d565b60008484015250505050565b6000601f19601f8301169050919050565b60006114e08261147e565b6114ea8185611489565b93506114fa81856020860161149a565b611503816114c4565b840191505092915050565b6000602082019050818103600083015261152881846114d5565b905092915050565b6000819050919050565b61154381611530565b82525050565b600060208201905061155e600083018461153a565b92915050565b600060ff82169050919050565b61157a81611564565b82525050565b60006020820190506115956000830184611571565b92915050565b6000604051905090565b600080fd5b600080fd5b600073ffffffffffffffffffffffffffffffffffffffff82169050919050565b60006115da826115af565b9050919050565b6115ea816115cf565b81146115f557600080fd5b50565b600081359050611607816115e1565b92915050565b61161681611530565b811461162157600080fd5b50565b6000813590506116338161160d565b92915050565b600080604083850312156116505761164f6115a5565b5b600061165e858286016115f8565b925050602061166f85828601611624565b9150509250929050565b60006020828403121561168f5761168e6115a5565b5b600061169d848285016115f8565b91505092915050565b600081519050919050565b600082825260208201905092915050565b6000819050602082019050919050565b6116db816115cf565b82525050565b60006116ed83836116d2565b60208301905092915050565b6000602082019050919050565b6000611711826116a6565b61171b81856116b1565b9350611726836116c2565b8060005b8381101561175757815161173e88826116e1565b9750611749836116f9565b92505060018101905061172a565b5085935050505092915050565b600081519050919050565b600082825260208201905092915050565b6000819050602082019050919050565b61179981611530565b82525050565b60006117ab8383611790565b60208301905092915050565b6000602082019050919050565b60006117cf82611764565b6117d9818561176f565b93506117e483611780565b8060005b838110156118155781516117fc888261179f565b9750611807836117b7565b9250506001810190506117e8565b5085935050505092915050565b6000606082019050818103600083015261183c8186611706565b9050818103602083015261185081856117c4565b905061185f604083018461153a565b949350505050565b6000806040838503121561187e5761187d6115a5565b5b600061188c858286016115f8565b925050602061189d858286016115f8565b9150509250929050565b600080fd5b7f4e487b7100000000000000000000000000000000000000000000000000000000600052604160045260246000fd5b6118e4826114c4565b810181811067ffffffffffffffff82111715611903576119026118ac565b5b80604052505050565b600061191661159b565b905061192282826118db565b919050565b600067ffffffffffffffff821115611942576119416118ac565b5b602082029050602081019050919050565b600080fd5b600061196b61196684611927565b61190c565b9050808382526020820190506020840283018581111561198e5761198d611953565b5b835b818110156119b757806119a388826115f8565b845260208401935050602081019050611990565b5050509392505050565b600082601f8301126119d6576119d56118a7565b5b81356119e6848260208601611958565b91505092915050565b600067ffffffffffffffff821115611a0a57611a096118ac565b5b602082029050602081019050919050565b6000611a2e611a29846119ef565b61190c565b90508083825260208201905060208402830185811115611a5157611a50611953565b5b835b81811015611a7a5780611a668882611624565b845260208401935050602081019050611a53565b5050509392505050565b600082601f830112611a9957611a986118a7565b5b8135611aa9848260208601611a1b565b91505092915050565b60008060408385031215611ac957611ac86115a5565b5b600083013567ffffffffffffffff811115611ae757611ae66115aa565b5b611af3858286016119c1565b925050602083013567ffffffffffffffff811115611b1457611b136115aa565b5b611b2085828601611a84565b9150509250929050565b6000611b35826115af565b9050919050565b611b4581611b2a565b82525050565b6000604082019050611b606000830185611b3c565b611b6d602083018461153a565b9392505050565b60008115159050919050565b611b8981611b74565b82525050565b6000602082019050611ba46000830184611b80565b92915050565b7f4e487b7100000000000000000000000000000000000000000000000000000000600052602260045260246000fd5b60006002820490506001821680611bf157607f821691505b602082108103611c0457611c03611baa565b5b50919050565b7f4d696e74696e67207065726d697373696f6e73206e6f74206772616e74656400600082015250565b6000611c40601f83611489565b9150611c4b82611c0a565b602082019050919050565b60006020820190508181036000830152611c6f81611c33565b9050919050565b7f43616e6e6f74206d696e74203020746f6b656e73000000000000000000000000600082015250565b6000611cac601483611489565b9150611cb782611c76565b602082019050919050565b60006020820190508181036000830152611cdb81611c9f565b9050919050565b7f4e487b7100000000000000000000000000000000000000000000000000000000600052601160045260246000fd5b6000611d1c82611530565b9150611d2783611530565b9250828201905080821115611d3f57611d3e611ce2565b5b92915050565b7f4f6e6c7920746865206f776e65722063616e2072656d6f766520617373657473600082015250565b6000611d7b602083611489565b9150611d8682611d45565b602082019050919050565b60006020820190508181036000830152611daa81611d6e565b9050919050565b7f496e76616c696420617373657420616464726573730000000000000000000000600082015250565b6000611de7601583611489565b9150611df282611db1565b602082019050919050565b60006020820190508181036000830152611e1681611dda565b9050919050565b7f4e487b7100000000000000000000000000000000000000000000000000000000600052603260045260246000fd5b6000611e5782611530565b91507fffffffffffffffffffffffffffffffffffffffffffffffffffffffffffffffff8203611e8957611e88611ce2565b5b600182019050919050565b7f4f6e6c7920746865206f776e65722063616e2061646420617373657473000000600082015250565b6000611eca601d83611489565b9150611ed582611e94565b602082019050919050565b60006020820190508181036000830152611ef981611ebd565b9050919050565b7f496e76616c696420776569676874000000000000000000000000000000000000600082015250565b6000611f36600e83611489565b9150611f4182611f00565b602082019050919050565b60006020820190508181036000830152611f6581611f29565b9050919050565b7f53656e6465722073686f756c6420626520746865206f776e6572206f6620746860008201527f652073796e746865746963206173736574000000000000000000000000000000602082015250565b6000611fc8603183611489565b9150611fd382611f6c565b604082019050919050565b60006020820190508181036000830152611ff781611fbb565b9050919050565b7f496e76616c6964206164647265737320666f72206e6577206f776e6572000000600082015250565b6000612034601d83611489565b915061203f82611ffe565b602082019050919050565b6000602082019050818103600083015261206381612027565b9050919050565b7f4174206c65617374206f6e6520756e6465726c79696e6720617373657420697360008201527f2072657175697265640000000000000000000000000000000000000000000000602082015250565b60006120c6602983611489565b91506120d18261206a565b604082019050919050565b600060208201905081810360008301526120f5816120b9565b9050919050565b7f496e76616c696420756e6465726c79696e672061737365747300000000000000600082015250565b6000612132601983611489565b915061213d826120fc565b602082019050919050565b6000602082019050818103600083015261216181612125565b9050919050565b7f496e76616c696420756e6465726c79696e672061737365740000000000000000600082015250565b600061219e601883611489565b91506121a982612168565b602082019050919050565b600060208201905081810360008301526121cd81612191565b9050919050565b7f496e73756666696369656e742062616c616e6365206f7220696e76616c69642060008201527f7472616e7366657220616d6f756e740000000000000000000000000000000000602082015250565b6000612230602f83611489565b915061223b826121d4565b604082019050919050565b6000602082019050818103600083015261225f81612223565b9050919050565b600061227182611530565b915061227c83611530565b925082820390508181111561229457612293611ce2565b5b9291505056fea26469706673582212206ad9f5b0fb6584190d67b93bc189c0cf86186d18fbec371ecf3d766613c4114b64736f6c63430008110033",
  "linkReferences": {},
  "deployedLinkReferences": {}
}