{
  "_format": "hh-sol-artifact-1",
  "contractName": "SyntheticAssetMarket",
  "sourceName": "contracts/SyntheticAssetMarket.sol",
  "abi": [
    {
      "inputs": [],
      "stateMutability": "nonpayable",
      "type": "constructor"
    },
    {
      "anonymous": false,
      "inputs": [
        {
          "indexed": true,
          "internalType": "address",
          "name": "from",
          "type": "address"
        },
        {
          "indexed": true,
          "internalType": "address",
          "name": "to",
          "type": "address"
        },
        {
          "indexed": false,
          "internalType": "uint256",
          "name": "value",
          "type": "uint256"
        }
      ],
      "name": "Transfer",
      "type": "event"
    },
    {
      "inputs": [
        {
          "internalType": "address",
          "name": "",
          "type": "address"
        }
      ],
      "name": "balanceOf",
      "outputs": [
        {
          "internalType": "uint256",
          "name": "",
          "type": "uint256"
        }
      ],
      "stateMutability": "view",
      "type": "function"
    },
    {
      "inputs": [
        {
          "internalType": "string",
          "name": "_name",
          "type": "string"
        },
        {
          "internalType": "string",
          "name": "_symbol",
          "type": "string"
        },
        {
          "internalType": "uint8",
          "name": "_decimals",
          "type": "uint8"
        },
        {
          "internalType": "uint256",
          "name": "_totalSupply",
          "type": "uint256"
        },
        {
          "internalType": "uint256",
          "name": "_price",
          "type": "uint256"
        },
        {
          "internalType": "uint256",
          "name": "_weight",
          "type": "uint256"
        }
      ],
      "name": "createSyntheticAsset",
      "outputs": [],
      "stateMutability": "nonpayable",
      "type": "function"
    },
    {
      "inputs": [],
      "name": "decimals",
      "outputs": [
        {
          "internalType": "uint8",
          "name": "",
          "type": "uint8"
        }
      ],
      "stateMutability": "view",
      "type": "function"
    },
    {
      "inputs": [
        {
          "internalType": "address",
          "name": "_address",
          "type": "address"
        }
      ],
      "name": "getSyntheticAssetDetail",
      "outputs": [
        {
          "internalType": "uint256",
          "name": "",
          "type": "uint256"
        },
        {
          "internalType": "uint256",
          "name": "",
          "type": "uint256"
        }
      ],
      "stateMutability": "view",
      "type": "function"
    },
    {
      "inputs": [],
      "name": "getSyntheticAssets",
      "outputs": [
        {
          "internalType": "address[]",
          "name": "",
          "type": "address[]"
        }
      ],
      "stateMutability": "view",
      "type": "function"
    },
    {
      "inputs": [],
      "name": "name",
      "outputs": [
        {
          "internalType": "string",
          "name": "",
          "type": "string"
        }
      ],
      "stateMutability": "view",
      "type": "function"
    },
    {
      "inputs": [],
      "name": "owner",
      "outputs": [
        {
          "internalType": "address",
          "name": "",
          "type": "address"
        }
      ],
      "stateMutability": "view",
      "type": "function"
    },
    {
      "inputs": [],
      "name": "symbol",
      "outputs": [
        {
          "internalType": "string",
          "name": "",
          "type": "string"
        }
      ],
      "stateMutability": "view",
      "type": "function"
    },
    {
      "inputs": [
        {
          "internalType": "address",
          "name": "",
          "type": "address"
        }
      ],
      "name": "syntheticAssetDetail",
      "outputs": [
        {
          "internalType": "uint256",
          "name": "price",
          "type": "uint256"
        },
        {
          "internalType": "uint256",
          "name": "weight",
          "type": "uint256"
        }
      ],
      "stateMutability": "view",
      "type": "function"
    },
    {
      "inputs": [
        {
          "internalType": "uint256",
          "name": "",
          "type": "uint256"
        }
      ],
      "name": "syntheticAssets",
      "outputs": [
        {
          "internalType": "address",
          "name": "",
          "type": "address"
        }
      ],
      "stateMutability": "view",
      "type": "function"
    },
    {
      "inputs": [],
      "name": "totalSupply",
      "outputs": [
        {
          "internalType": "uint256",
          "name": "",
          "type": "uint256"
        }
      ],
      "stateMutability": "view",
      "type": "function"
    },
    {
      "inputs": [
        {
          "internalType": "address",
          "name": "_from",
          "type": "address"
        },
        {
          "internalType": "address",
          "name": "_to",
          "type": "address"
        },
        {
          "internalType": "uint256",
          "name": "_value",
          "type": "uint256"
        }
      ],
      "name": "trade",
      "outputs": [],
      "stateMutability": "nonpayable",
      "type": "function"
    }
  ],
  "bytecode": "0x608060405234801561001057600080fd5b50336000806101000a81548173ffffffffffffffffffffffffffffffffffffffff021916908373ffffffffffffffffffffffffffffffffffffffff160217905550611505806100606000396000f3fe608060405234801561001057600080fd5b50600436106100b45760003560e01c806370a082311161007157806370a08231146101905780638da5cb5b146101c057806395d89b41146101de578063d713740a146101fc578063da3ad1f914610218578063fc7f231014610236576100b4565b806306fdde03146100b957806318160ddd146100d75780631bc7bf79146100f55780632c7407aa14610126578063313ce567146101565780635253baae14610174575b600080fd5b6100c1610267565b6040516100ce9190610a73565b60405180910390f35b6100df6102f5565b6040516100ec9190610aae565b60405180910390f35b61010f600480360381019061010a9190610b3b565b6102fb565b60405161011d929190610b68565b60405180910390f35b610140600480360381019061013b9190610bbd565b61038d565b60405161014d9190610bf9565b60405180910390f35b61015e6103cc565b60405161016b9190610c30565b60405180910390f35b61018e60048036038101906101899190610c4b565b6103df565b005b6101aa60048036038101906101a59190610b3b565b610611565b6040516101b79190610aae565b60405180910390f35b6101c8610629565b6040516101d59190610bf9565b60405180910390f35b6101e661064d565b6040516101f39190610a73565b60405180910390f35b61021660048036038101906102119190610dff565b6106db565b005b610220610931565b60405161022d9190610f82565b60405180910390f35b610250600480360381019061024b9190610b3b565b6109bf565b60405161025e929190610b68565b60405180910390f35b6002805461027490610fd3565b80601f01602080910402602001604051908101604052809291908181526020018280546102a090610fd3565b80156102ed5780601f106102c2576101008083540402835291602001916102ed565b820191906000526020600020905b8154815290600101906020018083116102d057829003601f168201915b505050505081565b60055481565b600080600760008473ffffffffffffffffffffffffffffffffffffffff1673ffffffffffffffffffffffffffffffffffffffff16815260200190815260200160002060000154600760008573ffffffffffffffffffffffffffffffffffffffff1673ffffffffffffffffffffffffffffffffffffffff1681526020019081526020016000206001015491509150915091565b6006818154811061039d57600080fd5b906000526020600020016000915054906101000a900473ffffffffffffffffffffffffffffffffffffffff1681565b600460009054906101000a900460ff1681565b60008054906101000a900473ffffffffffffffffffffffffffffffffffffffff1673ffffffffffffffffffffffffffffffffffffffff163373ffffffffffffffffffffffffffffffffffffffff161461046d576040517f08c379a000000000000000000000000000000000000000000000000000000000815260040161046490611076565b60405180910390fd5b80600160008573ffffffffffffffffffffffffffffffffffffffff1673ffffffffffffffffffffffffffffffffffffffff16815260200190815260200160002054101580156104bc5750600081115b6104fb576040517f08c379a00000000000000000000000000000000000000000000000000000000081526004016104f290611108565b60405180910390fd5b80600160008573ffffffffffffffffffffffffffffffffffffffff1673ffffffffffffffffffffffffffffffffffffffff168152602001908152602001600020600082825461054a9190611157565b9250508190555080600160008473ffffffffffffffffffffffffffffffffffffffff1673ffffffffffffffffffffffffffffffffffffffff16815260200190815260200160002060008282546105a0919061118b565b925050819055508173ffffffffffffffffffffffffffffffffffffffff168373ffffffffffffffffffffffffffffffffffffffff167fddf252ad1be2c89b69c2b068fc378daa952ba7f163c4a11628f55a4df523b3ef836040516106049190610aae565b60405180910390a3505050565b60016020528060005260406000206000915090505481565b60008054906101000a900473ffffffffffffffffffffffffffffffffffffffff1681565b6003805461065a90610fd3565b80601f016020809104026020016040519081016040528092919081815260200182805461068690610fd3565b80156106d35780601f106106a8576101008083540402835291602001916106d3565b820191906000526020600020905b8154815290600101906020018083116106b657829003601f168201915b505050505081565b60008054906101000a900473ffffffffffffffffffffffffffffffffffffffff1673ffffffffffffffffffffffffffffffffffffffff163373ffffffffffffffffffffffffffffffffffffffff1614610769576040517f08c379a000000000000000000000000000000000000000000000000000000000815260040161076090611231565b60405180910390fd5b6000604051806040016040528084815260200183815250905080600760003373ffffffffffffffffffffffffffffffffffffffff1673ffffffffffffffffffffffffffffffffffffffff16815260200190815260200160002060008201518160000155602082015181600101559050506006339080600181540180825580915050600190039060005260206000200160009091909190916101000a81548173ffffffffffffffffffffffffffffffffffffffff021916908373ffffffffffffffffffffffffffffffffffffffff160217905550866002908161084b91906113fd565b50856003908161085b91906113fd565b5084600460006101000a81548160ff021916908360ff1602179055508360058190555083600160003373ffffffffffffffffffffffffffffffffffffffff1673ffffffffffffffffffffffffffffffffffffffff168152602001908152602001600020819055503373ffffffffffffffffffffffffffffffffffffffff16600073ffffffffffffffffffffffffffffffffffffffff167fddf252ad1be2c89b69c2b068fc378daa952ba7f163c4a11628f55a4df523b3ef866040516109209190610aae565b60405180910390a350505050505050565b606060068054806020026020016040519081016040528092919081815260200182805480156109b557602002820191906000526020600020905b8160009054906101000a900473ffffffffffffffffffffffffffffffffffffffff1673ffffffffffffffffffffffffffffffffffffffff168152602001906001019080831161096b575b5050505050905090565b60076020528060005260406000206000915090508060000154908060010154905082565b600081519050919050565b600082825260208201905092915050565b60005b83811015610a1d578082015181840152602081019050610a02565b60008484015250505050565b6000601f19601f8301169050919050565b6000610a45826109e3565b610a4f81856109ee565b9350610a5f8185602086016109ff565b610a6881610a29565b840191505092915050565b60006020820190508181036000830152610a8d8184610a3a565b905092915050565b6000819050919050565b610aa881610a95565b82525050565b6000602082019050610ac36000830184610a9f565b92915050565b6000604051905090565b600080fd5b600080fd5b600073ffffffffffffffffffffffffffffffffffffffff82169050919050565b6000610b0882610add565b9050919050565b610b1881610afd565b8114610b2357600080fd5b50565b600081359050610b3581610b0f565b92915050565b600060208284031215610b5157610b50610ad3565b5b6000610b5f84828501610b26565b91505092915050565b6000604082019050610b7d6000830185610a9f565b610b8a6020830184610a9f565b9392505050565b610b9a81610a95565b8114610ba557600080fd5b50565b600081359050610bb781610b91565b92915050565b600060208284031215610bd357610bd2610ad3565b5b6000610be184828501610ba8565b91505092915050565b610bf381610afd565b82525050565b6000602082019050610c0e6000830184610bea565b92915050565b600060ff82169050919050565b610c2a81610c14565b82525050565b6000602082019050610c456000830184610c21565b92915050565b600080600060608486031215610c6457610c63610ad3565b5b6000610c7286828701610b26565b9350506020610c8386828701610b26565b9250506040610c9486828701610ba8565b9150509250925092565b600080fd5b600080fd5b7f4e487b7100000000000000000000000000000000000000000000000000000000600052604160045260246000fd5b610ce082610a29565b810181811067ffffffffffffffff82111715610cff57610cfe610ca8565b5b80604052505050565b6000610d12610ac9565b9050610d1e8282610cd7565b919050565b600067ffffffffffffffff821115610d3e57610d3d610ca8565b5b610d4782610a29565b9050602081019050919050565b82818337600083830152505050565b6000610d76610d7184610d23565b610d08565b905082815260208101848484011115610d9257610d91610ca3565b5b610d9d848285610d54565b509392505050565b600082601f830112610dba57610db9610c9e565b5b8135610dca848260208601610d63565b91505092915050565b610ddc81610c14565b8114610de757600080fd5b50565b600081359050610df981610dd3565b92915050565b60008060008060008060c08789031215610e1c57610e1b610ad3565b5b600087013567ffffffffffffffff811115610e3a57610e39610ad8565b5b610e4689828a01610da5565b965050602087013567ffffffffffffffff811115610e6757610e66610ad8565b5b610e7389828a01610da5565b9550506040610e8489828a01610dea565b9450506060610e9589828a01610ba8565b9350506080610ea689828a01610ba8565b92505060a0610eb789828a01610ba8565b9150509295509295509295565b600081519050919050565b600082825260208201905092915050565b6000819050602082019050919050565b610ef981610afd565b82525050565b6000610f0b8383610ef0565b60208301905092915050565b6000602082019050919050565b6000610f2f82610ec4565b610f398185610ecf565b9350610f4483610ee0565b8060005b83811015610f75578151610f5c8882610eff565b9750610f6783610f17565b925050600181019050610f48565b5085935050505092915050565b60006020820190508181036000830152610f9c8184610f24565b905092915050565b7f4e487b7100000000000000000000000000000000000000000000000000000000600052602260045260246000fd5b60006002820490506001821680610feb57607f821691505b602082108103610ffe57610ffd610fa4565b5b50919050565b7f4f6e6c79206f776e65722063616e2074726164652073796e746865746963206160008201527f7373657400000000000000000000000000000000000000000000000000000000602082015250565b60006110606024836109ee565b915061106b82611004565b604082019050919050565b6000602082019050818103600083015261108f81611053565b9050919050565b7f496e73756666696369656e742062616c616e6365206f7220696e76616c69642060008201527f7472616e7366657220616d6f756e740000000000000000000000000000000000602082015250565b60006110f2602f836109ee565b91506110fd82611096565b604082019050919050565b60006020820190508181036000830152611121816110e5565b9050919050565b7f4e487b7100000000000000000000000000000000000000000000000000000000600052601160045260246000fd5b600061116282610a95565b915061116d83610a95565b925082820390508181111561118557611184611128565b5b92915050565b600061119682610a95565b91506111a183610a95565b92508282019050808211156111b9576111b8611128565b5b92915050565b7f4f6e6c79206f776e65722063616e206372656174652073796e7468657469632060008201527f6173736574000000000000000000000000000000000000000000000000000000602082015250565b600061121b6025836109ee565b9150611226826111bf565b604082019050919050565b6000602082019050818103600083015261124a8161120e565b9050919050565b60008190508160005260206000209050919050565b60006020601f8301049050919050565b600082821b905092915050565b6000600883026112b37fffffffffffffffffffffffffffffffffffffffffffffffffffffffffffffffff82611276565b6112bd8683611276565b95508019841693508086168417925050509392505050565b6000819050919050565b60006112fa6112f56112f084610a95565b6112d5565b610a95565b9050919050565b6000819050919050565b611314836112df565b61132861132082611301565b848454611283565b825550505050565b600090565b61133d611330565b61134881848461130b565b505050565b5b8181101561136c57611361600082611335565b60018101905061134e565b5050565b601f8211156113b15761138281611251565b61138b84611266565b8101602085101561139a578190505b6113ae6113a685611266565b83018261134d565b50505b505050565b600082821c905092915050565b60006113d4600019846008026113b6565b1980831691505092915050565b60006113ed83836113c3565b9150826002028217905092915050565b611406826109e3565b67ffffffffffffffff81111561141f5761141e610ca8565b5b6114298254610fd3565b611434828285611370565b600060209050601f8311600181146114675760008415611455578287015190505b61145f85826113e1565b8655506114c7565b601f19841661147586611251565b60005b8281101561149d57848901518255600182019150602085019450602081019050611478565b868310156114ba57848901516114b6601f8916826113c3565b8355505b6001600288020188555050505b50505050505056fea264697066735822122027916aa8553d82256b697fcbe784b2a82957998866160fe509e34f1885514c9d64736f6c63430008110033",
  "linkReferences": {},
  "deployedLinkReferences": {}
}